:020000040800F2
:10000000C036012055020008553400086932000846
:1000100051340008411200082B690008000000005C
:100020000000000000000000000000009D0100082A
:10003000F129000800000000F1010008E93D000876
:100040006F0200086F0200086F0200086F020008CC
:100050006F0200086F020008F52900086F0200080F
:100060006F0200086F0200084D2A00086F020008A6
:100070006F0200086F0200086F0200086F0200089C
:100080006F0200086F0200086F0200086F0200088C
:10009000511300086F0200086F0200086F02000889
:1000A0006F0200086F0200086F0200086F0200086C
:1000B0006F0200086F0200086D3F00086F02000821
:1000C0006F0200086F0200086F0200086F0200084C
:1000D0006F020008894500086F0200086D4700089C
:1000E0006F0200086F0200086F0200086F0200082C
:1000F0006F0200086F0200086F0200086F0200081C
:100100006F0200086F0200086F0200086F0200080B
:100110006F0200086F0200086F0200086F020008FB
:100120006F020008BD2500086F0200086F0200087A
:100130006F0200086F0200086F0200086F020008DB
:100140008D1400086F0200086F020008A93500082E
:100150006F0200086F0200086F020008514A000891
:100160006F0200086F0200086F0200086F020008AB
:100170006F0200086F0200086F0200080000000014
:100180006F0200086F020008DFF80CD000F0A6FB39
:100190000048004711980008C03601202A4B196812
:1001A0000868B0E8F04F80F30988BFF36F8F4FF015
:1001B000000080F3118870470000000006480068C6
:1001C000006880F3088862B661B6BFF34F8FBFF353
:1001D0006F8F00DF00BF00BF08ED00E0DFF80C000C
:1001E000016841F470010160704700BF88ED00E0D4
:1001F000EFF30980BFF36F8F134B1A681EF0100FD7
:1002000008BF20ED108A20E9F04F106008B44FF0CD
:10021000500080F31188BFF34F8FBFF36F8F0CF046
:10022000DBFD4FF0000080F3118808BC19680868F6
:10023000B0E8F04F1EF0100F08BFB0EC108A80F34A
:100240000988BFF36F8F7047D4000020EFF305805B
:10025000704700000648804706480047FEE7FEE773
:10026000FEE7FEE7FEE7FEE7FEE7FEE7FEE7FEE766
:10027000353E0008890100089FED1A1AF5EE000AC4
:1002800040EE010ABDEEE00AF5EEC00A10EE100ADB
:10029000F1EE10FA38BF401E00EE100A1349F7EED7
:1002A000001AB8EEC00A30EEC00ADFED0F0A20EEE9
:1002B000200AFCEEC00A10EE900AC0F3080000EE1F
:1002C000900A01EB8000F8EE600A90ED011A70EEE2
:1002D000600A90ED000A71EEE01A21EE800A00EE4D
:1002E000810A704783F9223E0000004444E200087E
:1002F000DFED190AB5EEC00A60EE200ABDEEE01A85
:1003000011EE100AF1EE10FA38BF401E00EE100A8E
:100310001349F7EE001AB8EEC00A30EEC00ADFED5E
:100320000F0A60EE200ABCEEE00A10EE100AC0F3DD
:10033000080000EE100A01EB8000B8EE400A90EDD4
:10034000011A70EEC00A90ED000A71EEE01A21EE7B
:10035000800A00EE810A704783F9223E00000044C3
:1003600044E2000840EA01039B0703D009E008C902
:10037000121F08C0042AFAD203E011F8013B00F86A
:10038000013B521EF9D27047D2B201E000F8012BB6
:10039000491EFBD270470022F6E710B513460A4605
:1003A00004461946FFF7F0FF204610BD421C10F826
:1003B000011B0029FBD1801A70472DE9FE4F8046B2
:1003C00081EA0300C00F0C46009021F0004123F0A9
:1003D0000045B8EB0200A94105D2404621469046AF
:1003E0001C460B46024623F00040104347D0270D21
:1003F000C7F30A00C3F30A510290401A0190402843
:100400006BDAC3F3130040F4801B0098924620B1CE
:100410000023D2EB030A63EB0B0B01985946C0F1A2
:100420004002504600F0CCF906460D46504659466B
:10043000019A00F0E4F910EB08006141002487EA1A
:10044000115284EAE7731A4340D0009A62B3019ACA
:10045000012A4FEA075215DC001B61EB02014FF045
:10046000004202EA0752CDE90042001C41F580112A
:1004700032462B4600F0E4F903B0BDE8F08F404669
:100480002146F9E7001B61EB0201001C41F58013D6
:1004900000185B412018A2F5001747EB030140EA62
:1004A000D570B6196D4111E06D084FEA360645EA80
:1004B000C0754FEA0752001B61EB0201001C41F5B9
:1004C000801149084FEA30000019514132462B464D
:1004D00003B0BDE8F04F00F0A4B90098012240003D
:1004E0000023D0EB020263EBE073009821464FEA51
:1004F000E074B8EB000061EB0401E9E783F000432E
:100500005BE781F0004158E72DE9FE4F81EA0304E3
:1005100004F0004421F0004100944FF0000B23F060
:10052000004350EA01045ED052EA03045BD0C3F3F7
:100530000A54C1F30A552C44A4F2F3340194A0FBED
:100540000254C1F3130141F48011C3F3130343F4C4
:10055000801301FB024400FB034E840A970A44EA1D
:10056000815447EA8357A4FB076802958D0A05FB6F
:1005700007854FEA932C04FB0C542705029D4FEA94
:10058000065847EA1637B5EB08056EEB070C870EE1
:10059000920E47EA811742EA8312A7FB0201B6EBEB
:1005A0000B0164EB00042B0D43EA0C335E1844EBA3
:1005B0001C50DA465146E7FB0201C5F313044FEA2B
:1005C0000B3343EA14534FEA0432019C43EA060317
:1005D000A4F10C040294009CCDE900B400F030F9C1
:1005E00003B0BDE8F08F00200146F9E72DE9F04D9A
:1005F00081EA030404F0004B21F0004514464FF05B
:10060000000A23F0004150EA050220D054EA01021A
:100610001DD0C5F30A570246C5F31303C1F31300F7
:10062000C1F30A5640F4801543F48013A7EB060883
:10063000101BD64608F2FD3873EB050002D308F113
:10064000010801E092185B41B8F1000F03DA0020C5
:100650000146BDE8F08D00204FF480110646844627
:100660000EE0171B73EB050705D3121B63EB0503A5
:1006700006434CEA010C49084FEA300092185B41EE
:1006800050EA0107EDD152EA030012D082EA0400D9
:1006900083EA0501084305D0101BAB4106D20122B5
:1006A000002306E000224FF0004302E06FF0010259
:1006B00053101AEB06004CEB085110EB0A0041EB0B
:1006C0000B01BDE8F04D00F0ACB80EB5C10F80EAEB
:1006D000E0700844CA07002140F233438DE80E0061
:1006E0000A460B4600F0ACF803B000BD0EB540F270
:1006F000334102910021CDE900110A460B4600F07A
:100700009FF803B000BDC1F30A5210B5C1F3130145
:1007100040F2FF3341F480119A4201DA002010BD0B
:1007200040F233439A42A2F2334203DC524200F0D9
:1007300056F810BD904010BD00F0004230F000406F
:100740000AD0C10D01F56071C0F3160042EA0151F3
:10075000C20840071143704700200146704700005F
:1007600030B5041E71F1000404DB4FF00044404238
:1007700064EB0101141E73F1000405DB1C464FF00D
:100780000043524263EB04038B4208BF824230BDF8
:1007900030B5041E71F1000404DB4FF00044404208
:1007A00064EB0101141E73F1000405DB1C464FF0DD
:1007B0000043524263EB0403994208BF904230BDAC
:1007C000202A04DB203A00FA02F100207047914011
:1007D000C2F1200320FA03F3194390407047202A06
:1007E00004DB203A21FA02F00021704721FA02F3DB
:1007F000D040C2F120029140084319467047202A98
:1008000006DBCB17203A41FA02F043EAE07306E038
:1008100041FA02F3D040C2F1200291400843194648
:10082000704710B5141E73F1000408DA401C41F142
:10083000000192185B411A4301D120F0010010BD64
:100840002DE9F04D92469B4611B1B1FA81F202E0DA
:10085000B0FA80F220329046FFF7B2FF04460F460E
:1008600040EA0A0041EA0B0153465A46084313D0B6
:10087000114653EA010019D0C8F140025046FFF773
:10088000AEFF05460E46504659464246FFF798FFD2
:10089000084305D0012004E020463946BDE8F08D2C
:1008A0000020054346EAE0762C4337430A98630567
:1008B000E40AA0EB08000022FD0A44EA47540A308B
:1008C00002D500200146E9E7010510196941DDE97B
:1008D000084500196941BDE8F04DA2E7064C074DF7
:1008E00006E0E06840F0010394E807009847103400
:1008F000AC42F6D3FFF74CFC48EA000868EA00086F
:1009000070B58C1810F8015B15F0070301D110F8D1
:10091000013B2A1106D110F8012B03E010F8016BFE
:1009200001F8016B5B1EF9D12B0705D40023521E81
:100930000DD401F8013BFAE710F8013BCB1A921CE9
:1009400003E013F8015B01F8015B521EF9D5A142E7
:10095000D8D3002070BD10B52DED028BB0EE408ACB
:10096000B0EE480A06F0A4F8BDEC028B10BD10B53D
:100970002DED028BB0EE408AF0EE608AF0EE680A50
:10098000B0EE480A06F02AF9BDEC028B10BD10B596
:100990002DED028BB0EE408AB0EE480AFFF76CFCFA
:1009A000BDEC028B10BDF0EE400AF5EEC00AF1EE90
:1009B00010FA02DDB0EE600A7047B1EE600AFBE7A4
:1009C00018B19FED020A80ED000A70470000000098
:1009D00018B1B3EE060A80ED000A704770B52DED30
:1009E0000C8B84B006460C4615469FED990AF0EE36
:1009F000408A9FED970AB0EE409A9FED950AF0EE7F
:100A000040BA9FED930AF0EE409A9FED910AB0EE46
:100A100040AA0EB104B11DB904B0BDEC0C8B70BD81
:100A20008C48FFF7CDFF8C48FFF7D2FF8A48D0ED06
:100A3000000A9FED8A1A60EE810AB0EE600A00F0AB
:100A40002DF9F0EE408A28EEA80AF0EE408A82489E
:100A5000D0ED000AB0EE001A60EE810A9FED7F1A19
:100A600060EE810AB0EE600A00F018F9B0EE409A2C
:100A700029EE090AB0EE409ADFED790AB7EE000AD6
:100A800000EEA80ADFED770A00EEC90ADFED760A6C
:100A900020EE200A754880ED000A6E4890ED000AAD
:100AA000DFED730A80EE201AB7EE000A31EE000A7D
:100AB00020EE000A6D48D0ED000A80EE801A6D48E5
:100AC00080ED001A94ED000AB5EEC00AF1EE10FABE
:100AD0000DD194ED010AB5EEC00AF1EE10FA06D17F
:100AE00094ED020AB5EEC00AF1EE10FA46D09FED81
:100AF000580AB0EE408A0020019002900390D4ED95
:100B0000000A60EEA00A94ED011AD4ED011A41EE3C
:100B1000210A94ED021AD4ED021A41EE210AB0EE38
:100B2000600A00F0A9F8B0EE408A94ED000A20EEC9
:100B3000080A8DED010A94ED010A20EE080A8DEDF8
:100B4000020A94ED020A20EE080A8DED030ADDED9B
:100B5000010AF1EE600AB0EE600AFFF7FCFEF0EE6B
:100B6000409A9DED031AF0EE410A9DED021AB0EE97
:100B7000410AFFF7FCFEB0EE40AA07E09FED340A01
:100B8000F0EE409A9FED320AB0EE40AA95ED000AD1
:100B9000B5EEC00AF1EE10FA0DD195ED010AB5EEF1
:100BA000C00AF1EE10FA06D195ED020AB5EEC00AC0
:100BB000F1EE10FA3CD0B0EE690A00F06FF8B0EE3A
:100BC000408AB0EE690AFFF7E2FEB0EE40DAB0EE1E
:100BD0004A0A00F063F8F0EE40AAB0EE4A0AFFF7C6
:100BE000D6FEB0EE40BA28EE2A0AD5ED010A20EE74
:100BF000200AD5ED000A0DEE200A68EE0B0A95EDED
:100C0000021A00EE810AB0EE40CA95ED010A20EE0C
:100C10000B0AD5ED020A0AEEE00AF0EE40CAF0EE49
:100C20006C0AB0EE4C0AFFF7A2FEF0EE40BA03E009
:100C30009FED070AF0EE40BAB0EE4A1AF0EE690AEC
:100C4000B0EE6B0A304606F019FB00BFE4E6000088
:100C500000000000740500207805002035FA8E3C65
:100C6000C1BFAD3B9DF8C5362F7C1C417C050020E3
:100C7000506CC24A8005002010B52DED028BB0EEFD
:100C8000408AB0EE480A06F0DBF8B7EE001AC1EE73
:100C9000000AB0EE600ABDEC028B10BD10B52DED60
:100CA000028BB0EE408AB0EE480AFFF721FBBDECA4
:100CB000028B10BD2DE9F0412DED028B9AB0054657
:100CC000B0EE408A0E4617469846002017901890BE
:100CD00019901490159016904DB146B13FB1B8F1EE
:100CE000000F04D0B5EEC08AF1EE10FA05D1002055
:100CF0001AB0BDEC028BBDE8F08196ED000A8DEDD7
:100D0000170A96ED010A8DED180A96ED020A8DED8F
:100D1000190A97ED000A8DED140A97ED010A8DED81
:100D2000150A97ED020A8DED160A17AA14A928468E
:100D300006F0F6F8402104A8FFF72DFB00200090F4
:100D4000019002900390002417A904A80BF0D2FA96
:100D500000BF30E004A800EB041090ED000AD5EDD0
:100D6000000A20EE200A04A800EB0410D0ED010ACE
:100D700095ED011A00EE810A04A800EB0410D0EDF5
:100D8000020A95ED021A00EE810A04A800EB041095
:100D9000D0ED030A95ED031A00EE810A20EE080A51
:100DA000F0EE000A80EE201A684600EB840080ED29
:100DB000001A601CC4B2042CCCDB002410E005EB4C
:100DC000840090ED000A684600EB8400D0ED000A34
:100DD00030EE200A05EB840080ED000A601CC4B2EE
:100DE000042CECDB284609F027FF012080E70000F7
:100DF00010B51021014802F0A5F810BD0000024016
:100E000010B51021014802F09BF810BD000002400F
:100E10007047000010B50121014802F093F810BDA1
:100E20000004024010B50121014802F089F810BD0C
:100E30000004024000B585B00121042002F01CFC32
:100E40000121880302F058FC0421022002F008FF6F
:100E50000521022002F004FF3020009000208DF8D0
:100E6000040001208DF8070003208DF80500694675
:100E7000104801F0F1FF0A208DF8100005208DF8D0
:100E8000110000208DF8120001208DF8130004A835
:100E900002F0E2FA1020029000208DF80C001020E1
:100EA0008DF80D0001208DF80E0002A801F00AFE59
:100EB00005B000BD00080240704710B5044620464A
:100EC00006F06AFC10BD10B50446204606F08AFC08
:100ED00010BD000010B5FFF79BFFFFF7EDFF06F018
:100EE000AFFA2749097808432549087006F042FB04
:100EF0002349097808432249087000F063F9214822
:100F000090ED030A204880ED090A1E4890ED040A7E
:100F10001D4880ED0A0A1B4890ED050A1A4880ED2D
:100F20000B0A9FED1A0A80ED0C0A9FED180A80ED5E
:100F30000D0A9FED160A80ED0E0A9FED150A80ED51
:100F40000F0A90ED0F0ADFED130A80EE801A80ED94
:100F5000081A9FED110A80ED070A4FF480610F48CF
:100F600001F0F0FF4FF480510C4801F0E9FF4FF41D
:100F700000610A4801F0E6FF0148007810BD00005A
:100F80002D000020940700208805002000000000AC
:100F9000D4151A41C3F51C4100002042001C024038
:100FA0002DE9FC4105460E461746002000900190B1
:100FB000FFF726FF922000F0D1F8062269461220A2
:100FC00000F0ACF8FFF714FF9DF80100000200B23A
:100FD0009DF8001040EA010400EE104AB8EEC00A85
:100FE0004C48D0ED000A20EE200A86ED000A9DF85C
:100FF0000300000200B29DF8021040EA010400EE76
:10100000104AB8EEC00A4348D0ED000A20EE200A8C
:1010100086ED010A9DF80500000200B29DF804105B
:1010200040EA010400EE104AB8EEC00A3948D0ED9B
:10103000000A20EE200A86ED020AFFF7F3FE0822DE
:101040006946002000F06AF8FFF7E4FE9DF8000012
:101050000F2838D19DF80300000200B29DF802105D
:1010600040EA010400EE104AB8EEC00A2A48D0ED6A
:10107000000A20EE200A85ED000A9DF80500000216
:1010800000B29DF8041040EA010400EE104AB8EEE8
:10109000C00A2148D0ED000A20EE200A85ED010AA1
:1010A0009DF80700000200B29DF8061040EA010416
:1010B00000EE104AB8EEC00A1748D0ED000A20EE44
:1010C000200A85ED020AFFF79BFEA22000F046F8F9
:1010D00002226946222000F021F8FFF789FE9DF8E0
:1010E0000000C0009DF8011040EA6114B4F5806F63
:1010F00002DBA4F5006004B200EE104AF8EEC00A6C
:10110000B4EE001AB3EE070A00EE810A87ED000A7A
:10111000BDE8FC81000000200400002070B50646F8
:101120000C46154646F0800000F018F806E0552001
:1011300000F014F82070641C681EC5B2002DF6D1B2
:1011400070BD70B504460D4644F0800000F006F80E
:10115000552000F003F8287070BD00000246002101
:1011600006E01148814201D2491C01E0002070478D
:101170000E48008900F002000028F2D00B4882815E
:10118000002106E00848814201D2491C01E000200C
:10119000EDE70648008900F001000028F2D003487E
:1011A0008089C0B2E3E7000080A21900003001404E
:1011B00070B505460C462846FFF7D0FF2046FFF7DE
:1011C000CDFF70BD10B5202202490348FFF7CAF8D1
:1011D000032010BD00000A08940700202DE9F0410B
:1011E00004460D46154801F0AFFE0746134E01F0C8
:1011F0006DFD002001F0BAFCF32001F0B1FC00BF4E
:101200000221384601F0C4FC0928F9D10AE021780E
:10121000304601F035FD092802D00020BDE8F081FC
:10122000761C641C281EA5F10105F0D1012001F0F7
:101230009DFC01F01BFD0220F0E7000000000A0801
:1012400000BFFEE72DE9F0418AB004460D4617467F
:101250001E46DDF840800121082002F00DFA012130
:10126000480602F029FA0121480602F035FA002169
:101270004FF0007002F030FA0320089002208DF841
:10128000240000208DF8260001208DF8270003207F
:101290008DF8250008A92C4801F0DEFD0922002167
:1012A000294801F021FE09220121274801F01CFEF6
:1012B00001208DF81B0000208DF81C008DF81A000D
:1012C0008DF81F008DF81D008DF81E008DF816405A
:1012D000ADF814808DF818708DF819608DF81750DE
:1012E00005A91A4800F05BFA0020ADF80C008DF853
:1012F0000F0001208DF810000020ADF80400ADF8BB
:101300000600ADF80800ADF80A008DF80E000120C7
:101310008DF8110001A800F025F9012202210B48E7
:1013200000F034FA14208DF8000005208DF801003B
:1013300000208DF8020001208DF80300684602F0BD
:101340008BF80AB0BDE8F081000C02400064004058
:1013500010B50221084800F089F960B10221064861
:1013600000F0ACF8054A0021034800F0A2FA034956
:10137000014802F0C9FB10BD00640040C805002010
:101380002DE9F0418AB004460D4617461E46DDF8A9
:1013900040800121022002F06FF90121880602F04D
:1013A0008BF90121880602F097F900214FF0806047
:1013B00002F092F96020089002208DF824000020AD
:1013C0008DF826008DF8270003208DF8250008A948
:1013D0002C4801F041FD092205212A4801F084FD35
:1013E00009220621274801F07FFD01208DF81B000E
:1013F00000208DF81C008DF81A008DF81F008DF864
:101400001D008DF81E008DF81640ADF814808DF883
:1014100018708DF819608DF8175005A91A4800F05A
:10142000BEF90020ADF80C008DF80F0001208DF8FA
:1014300010000020ADF80400ADF80600ADF808007B
:10144000ADF80A000E208DF80E0001208DF8110075
:1014500001A800F087F8012202210B4800F096F95C
:1014600040208DF8000005208DF8010000208DF847
:10147000020001208DF80300684601F0EDFF0AB07C
:10148000BDE8F081000402400068004010B5022170
:10149000084800F0EBF860B10221064800F00EF8B1
:1014A000054A0021034800F004FA0349014802F00C
:1014B0002BFB10BD00680040DC050020B1F5007F6B
:1014C0003AD00FDC202928D006DC01291CD00429C1
:1014D0001DD0082940D11DE0402921D0B1F5807FE1
:1014E0003AD126E0B1F5004F31D006DCB1F5806F7E
:1014F00025D0B1F5006F2FD124E0B1F5803F12D097
:10150000B1F5003F28D111E0154A826025E008229C
:10151000C26022E01022C2601FE0082202611CE0CB
:101520001022026119E00822426016E01022426097
:1015300013E00422426010E0042242600DE0042225
:1015400042600AE0002282610422426005E000223B
:1015500082610422426000E000BF00BF70470000CB
:101560000101010010B50021837A012202FA03F182
:101570003D4A126842F001023B4B1A603A4A1C3263
:1015800012688A43384B1C331A60027BCAB9364A48
:101590000C3212688A43344B0C331A604288C38879
:1015A00042EA0343304A4032847A42F834300288B7
:1015B000838842EA03432C4A4032847A02EBC40215
:1015C0005360027B012A19D1274A0C3212680A4360
:1015D000254B0C331A604288038842EA0343224AAF
:1015E0004032847A42F83430C288838842EA034326
:1015F0001D4A4032847A02EBC4025360C27A3AB97F
:10160000194A121D12688A43174B1B1D1A6006E007
:10161000154A121D12680A43134B1B1D1A600289DA
:1016200032B9114A143212688A430F4B14331A60CC
:101630000289012A06D10C4A143212680A430A4B65
:1016400014331A60427B012A06D1074A1C32126801
:101650000A43054B1C331A60034A126822F0010248
:10166000014B1A6010BD00000066004070B50446D2
:101670000D46002660692840002871D0B5F5807FAE
:101680005CD010DC082D35D006DC012D20D0022DD9
:1016900024D0042D72D127E0102D31D0202D35D04B
:1016A000402D6BD138E0B5F5004F60D009DCB5F5C1
:1016B000007F49D0B5F5806F4CD0B5F5006F5DD196
:1016C0004FE0B5F5803F2DD0B5F5003F56D12FE066
:1016D000A0682D4900F0F8F9064651E0E0680321C2
:1016E00000F0F2F906464BE0E068082100F0ECF962
:1016F000064645E0E068102100F0E6F906463FE0C6
:101700002069032100F0E0F9064639E0206908214C
:1017100000F0DAF9064633E02069102100F0D4F930
:1017200006462DE06068082100F0CEF9064627E065
:101730006068102100F0C8F9064621E0A069012187
:1017400000F0C2F906461BE0A069022100F0BCF9D6
:10175000064615E0A069042100F0B6F906460FE040
:101760000FE0A069702100F0AFF9064608E060685C
:10177000042100F0A9F9064602E0FFE7002600BFB9
:1017800000E00026304670BD010101001AB1436936
:101790000B43436102E043698B434361704730B5BB
:1017A000024600200023146824F002041460146828
:1017B00044F00104146000E05B1C546804F0010470
:1017C0001CB94FF6FF74A342F6D1546804F001042B
:1017D0000CB900206CE08C79012C04D1146844F021
:1017E0008004146003E0146824F080041460CC7951
:1017F000012C04D1146844F04004146003E0146820
:1018000024F0400414600C7A012C04D1146844F0D4
:101810002004146003E0146824F0200414604C7A5F
:10182000012C04D1146844F01004146003E014681F
:1018300024F0100414608C7A012C04D1146844F054
:101840000804146003E0146824F008041460CC7ADF
:10185000012C04D1146844F00404146003E01468FB
:1018600024F0040414608C78A407CD7844EA05645D
:101870000D7944EA05444D7944EA05540D886D1EFE
:101880002C43D461146824F001041460002300E0A8
:101890005B1C546804F001041CB14FF6FF74A342B2
:1018A000F6D1546804F001040CB1002000E00120DE
:1018B00030BD10B500F5D87303EB01131B6803F0BE
:1018C00004031372137A53B900F5D87303EB0113B1
:1018D0001B6840F2FF7404EA5353136009E000F5FB
:1018E000D87303EB01131B686FF0604404EAD30361
:1018F000536000F5D87303EB01131B6803F0020378
:10190000537200F5D87303EB01135B6803F00F0308
:10191000937200F5D87303EB01135B681B0AD37451
:1019200000F5D87303EB01139B68D37200F5D873ED
:1019300003EB01139B681C0A147300F5D87303EBC7
:1019400001139B681C0C547300F5D87303EB01134F
:101950009B681B0E937300F5D87303EB0113DB68D0
:10196000D37300F5D87303EB0113DB681C0A1474FE
:1019700000F5D87303EB0113DB681C0C547400F5FD
:10198000D87303EB0113DB681B0E937421B9C36892
:1019900043F02003C36003E0036943F020030361C5
:1019A00010BD10B502460020936803F08063B3F1C8
:1019B000806F00D110E0936803F00063B3F1006F13
:1019C00001D1012008E0936803F08053B3F1805FF8
:1019D00001D1022000E00420042874D002F5C07375
:1019E00003EB00131B6803F0010402F5C07303EB63
:1019F00000131C600B7A7BB94B7A0C8843EA445382
:101A000002F5C07404EB00142468234302F5C0748B
:101A100004EB0014236010E00B7A4C6843EAC40323
:101A20004C7A234302F5C07404EB0014246823436A
:101A300002F5C07404EB001423608B7A03F00F03EB
:101A40008B7202F5C07303EB00135B6823F00F0485
:101A500002F5C07303EB00135C6002F5C07303EB87
:101A600000135B688C7A234302F5C07404EB001406
:101A700063608B7B1C064B7B44EA03440B7B44EA8C
:101A80000323CC7A234302F5C07404EB0014A36053
:101A90008B7C1C064B7C44EA03440B7C44EA032306
:101AA000CC7B234302F5C07404EB0014E36002F521
:101AB000C07303EB00131B6843F0010402F5C0730D
:101AC00003EB00131C6010BD0246002002EA010374
:101AD0000BB1012000E000207047F8B504460D4628
:101AE00016461F4601F038FE012001F007FF0020D6
:101AF00001F00CFF01F04CFF012820D101F026FE7F
:101B000033462A4621464FF48000009701F022FF19
:101B1000012001F019FF002001F0E4FE4FF4A05075
:101B200001F0FAFE4FF4805001F002FF00BF3920AF
:101B300001F0B8FE0028FAD0022001F01DFFF8BD28
:101B400070B506460C4604F08000802808D104F0E9
:101B50007F0000EB800106F58E7000EBC10507E009
:101B600004F07F0000EB800106F55D7000EBC1051D
:101B700004F07F00287004F08000C00968702946D6
:101B8000304604F08AFB002070BD70B506460C4656
:101B900004F08000802808D104F07F0000EB800171
:101BA00006F58E7000EBC10505E004EB840106F537
:101BB0005D7000EBC1050020A87004F07F00287064
:101BC000C4F3C01068702946304604F03EFB002084
:101BD00070BD2DE9F04106460D4690461F4605F0C2
:101BE0008000802808D105F07F0000EB800106F519
:101BF0008E7000EBC10407E005F07F0000EB800170
:101C000006F55D7000EBC10405F07F00207005F063
:101C10008000C0096070C4F80880E770607808B17F
:101C20002078E080022F01D100202071214630462B
:101C300004F0BFFA0020BDE8F0812DE9F04105462F
:101C40000E461746984606F07F0000EB800105F52A
:101C50005D7000EBC104E760C4F814800020A0614F
:101C6000607006F07F002070E878012800D12761BD
:101C7000207820B92146284604F0BFF903E0214628
:101C8000284604F06BFB0020BDE8F08108B5002277
:101C90000092009A61F30A12009202691268009B96
:101CA0001A4303691A6008BD70B506460C4604F075
:101CB0008000802808D104F07F0000EB800106F549
:101CC0008E7000EBC10505E004EB840106F55D7044
:101CD00000EBC1050120A87004F07F002870C4F358
:101CE000C01068702946304604F006FB002070BD25
:101CF0002DE9F04107460D461646984605F07F004F
:101D000000EB800107F58E7000EBC10401206070CC
:101D100005F07F002070E66026610020A061C4F815
:101D20001480207820B92146384604F066F903E093
:101D30002146384604F012FB0020BDE8F081000087
:101D400030B587B00546594C284604F01CF901A867
:101D500001F034FD029CE868C0680590059820F405
:101D6000705005900598E968C860284604F0BEFCEC
:101D700003280BD10020A8704FF40070A8800598AC
:101D800020F4705000F5105005907EE00120A870FE
:101D90004020A8804648844209D34648844206D25F
:101DA000059820F4705000F5605005906DE04148B2
:101DB000844209D34048844206D2059820F47050EA
:101DC00000F55050059060E03B48844209D33B4801
:101DD000844206D2059820F4705000F540500590DA
:101DE00053E03648844209D33548844206D20598E8
:101DF00020F4705000F53050059046E030488442A1
:101E000009D33048844206D2059820F4705000F57A
:101E10002050059039E02B48844209D32A48844257
:101E200006D2059820F4705000F5105005902CE073
:101E30002548844209D32548844206D2059820F4D7
:101E4000705000F5005005901FE02048844209D3EF
:101E50001F48844206D2059820F4705000F5E050E7
:101E6000059012E01A48844209D31A48844206D2E7
:101E7000059820F4705000F5C050059005E00598D5
:101E800020F4705000F5A05005900598E968C860EE
:101E900000200690069820F4005000F500500690AF
:101EA0000698E9684861012007B030BD007A030A4E
:101EB000C0E1E4000024F400E0EC040100C31801D8
:101EC000002D310140A44C0100366E0140E2950125
:101ED00080C3C90160600B02F8B5054600240020EC
:101EE0000090284604F043FC064681E006F001001D
:101EF00000287BD0E1B2284600F0F6FA0090009866
:101F000000F0010030B3012000FA04F72869406BAB
:101F1000B8432969486300200090009820F0010030
:101F2000401C009005F1180050F8240000998160D1
:101F3000E1B232480068426828469047E8780128B4
:101F400008D13CB940F21110405D042802D1284666
:101F500004F0FEF80098C0F3C00060B100200090CB
:101F6000009820F008000830009005F1180050F8A3
:101F70002400009981600098C0F3001060B1002037
:101F80000090009820F010001030009005F118002B
:101F900050F82400009981600098C0F3801060B16F
:101FA00000200090009820F040004030009005F1A3
:101FB000180050F82400009981600098C0F3400098
:101FC00060B100200090009820F00200801C00907A
:101FD00005F1180050F82400009981600098C0F3C2
:101FE000C01018B12146284600F092FA641C760809
:101FF000002E7FF47BAF0120F8BD0000A00400207C
:102000007CB50446002500200190204604F0B7FB73
:1020100006466FE006F00100002869D0E9B22046CC
:1020200004F0B5FB0190019800F00100C8B3002056
:102030000190019820F00100401C019004F154002F
:1020400050F8250001998160E078012817D104F14A
:10205000540050F825000069009005EB850104F557
:102060005D7000EBC10080680099C1F31201411A54
:1020700005EB850204F55D7000EBC2008161E9B2F9
:102080001E480068026820469047E078012808D181
:102090003DB940F21110005D052802D1204604F040
:1020A00057F80198C0F3400060B1002001900198FA
:1020B00020F00200801C019004F1540050F825002B
:1020C000019981600198C0F3C00088B10B48006895
:1020D00081682046884700200190019820F0080080
:1020E0000830019004F1540050F8250001998160F6
:1020F0006D1C7608002E8DD101207CBDA00400202F
:102100003EB50446A07A78B1D4F80C01006800907E
:10211000009820F002000090009820F0010000904C
:102120000099D4F80C01016000200190019820F082
:102130000100401C01902069406801998843216991
:10214000486009480068816920468847002002905D
:10215000029820F0004000F1004002900298E168EF
:10216000486101203EBD0000A00400207CB504466B
:1021700000200190019820F0100010300190E068DC
:10218000806901998843E1688861E068006A00908D
:10219000009800F00F0000EB800104F55D7000EB8B
:1021A000C1050098C0F3434007282DD2DFE800F0B6
:1021B0002C04051D1E2C1F0027E00098C0F30A10F8
:1021C00090B10098C0F30A122046E96804F0E9FAD9
:1021D000E8680099C1F30A110844E860A869009909
:1021E000C1F30A110844A8610FE00EE00DE00822D7
:1021F00004F2CC51204604F0D4FAA8690099C1F346
:102200000A110844A86100E000BF00BFE0688069CF
:1022100001990843E168886101207CBD38B5044616
:1022200008480068C1682046884700200090009850
:1022300020F00800083000900098E1684861012013
:1022400038BD0000A00400201FB504460020009007
:102250004FF48970005D0090234800684169204672
:10226000884720698068019000200390039820F43B
:10227000006000F5006003900398E1684861A07A6F
:1022800070B3019800F0010050B340F21510005DEA
:10229000012825D19DF80000032821D100200290BB
:1022A000029820F00100401C0290D4F80C01006854
:1022B00002990843D4F80C110860029820F002003B
:1022C000801C0290D4F80C01006802990843D4F8ED
:1022D0000C1108600548006840F0060003490860DA
:1022E000012004B010BD0000A004002010ED00E0AB
:1022F00030B587B004460020029006900590049007
:1023000003900190029820F00100401C0290206987
:10231000406802998843216948600021204604F002
:10232000BBF900250BE0FF2104F1180050F825004F
:10233000816004F1540050F8250081606D1C6078C4
:10234000A842F0D84FF0FF312069816106986FF301
:102350000F00401C0690069880B200F58030069071
:1023600006992069C161059820F0080008300590A1
:10237000059820F00100401C0590059820F002000F
:10238000801C0590059920694161049820F00100A6
:10239000401C0490049820F0080008300490049831
:1023A00020F00200801C04900499206901612069DA
:1023B00000680390039820F4FE600390039920695D
:1023C0000160204603F0C4FE00200190019820F433
:1023D000805000F5805001900198E1684861044800
:1023E0000068016920468847012007B030BD000021
:1023F000A00400202DE9F04106460F46394630463C
:1024000004F0E4F901214FF4897081550021801C0A
:102410008155002511E005EB850106F58E7000EB76
:10242000C104012060702570E5800020E07040202C
:10243000A0600020E06060616D1C7078A842EAD85E
:10244000002510E005EB850106F55D7000EBC10489
:10245000002060702570E580E0704020A0600020C2
:10246000E06060616D1C7078A842EBD8304603F0E4
:1024700079FD304603F0A6FB0021304604F00EFA49
:10248000304603F032FC304604F0CEF8BDE8F0816F
:1024900038B504460020009007480068C16920460E
:1024A0008847009820F4801000F580100090009874
:1024B000E1684861012038BDA004002038B5044619
:1024C0000020009007480068016A2046884700986D
:1024D00020F4001000F5001000900098E1684861B9
:1024E000012038BDA004002030B5024615692B69D3
:1024F00015696C6B24FA01F505F0010543EAC51373
:1025000002F1180555F82150AD6805EA030030BD09
:102510002DE9F84306460F4600250020009007EB02
:10252000870106F58E7000EBC104D4E90501451A58
:10253000A068A84200D2A568E81C4FEA900806F1FE
:10254000180050F827008069009029E0D4E90501BF
:10255000451AA068A84200D2A568E81C4FEA900876
:10256000ABB2FAB23046E16804F0BFF9E068284443
:10257000E060A0692844A06106F1180050F8270027
:1025800080690090D4E90501884209D121780120B1
:1025900000FA01F93069406B20EA090031694863AB
:1025A000009880B2404506D9D4E90510884202D28D
:1025B00060690028CAD10120BDE8F88310B50C4934
:1025C0000C4800F02FF988B10B490A4800F04CF98B
:1025D00060B12A220221094805F076F9044905482C
:1025E00000F00EF80449034800F024F810BD000084
:1025F000000800102864024000880010A4D80020C1
:102600000246094B9A4201D2084801E006481038B8
:1026100001F000531BB1064B0B40C36002E0044BBA
:102620000B4083607047000010640240006002406D
:102630007D0F7D0F0246094B9A4201D2084801E006
:102640000648103801F000531BB1064B0B40C36025
:1026500002E0044B0B4083607047000010640240AE
:10266000006002407D0F7D0F21B1026842F001023F
:10267000026003E0026822F001020260704700007D
:10268000016821F001010160002101604160816069
:10269000C1600161212141614A49884204D13D2143
:1026A000484A103A91608CE046491831884205D179
:1026B0004FF47461434A103A916082E041493031ED
:1026C000884205D14FF474113E4A103A916078E087
:1026D0003C494831884205D14FF07461394A103A7B
:1026E00091606EE037496031884204D13649354AFD
:1026F000103AD16065E033497831884204D13349DA
:10270000304A103AD1605CE02E499031884204D1C1
:102710002F492C4A103AD16053E02A49A831884207
:1027200005D14FF03D51274A103AD16049E029497F
:10273000884204D13D21274A083A116041E02549E9
:102740001831884205D14FF47461224A083A116069
:1027500037E020493031884205D14FF474111D4AC9
:10276000083A11602DE01B494831884205D14FF0ED
:102770007461184A083A116023E0164960318842B2
:1027800004D11149134A121F11601AE0114978311E
:10279000884204D10D490F4A121F116011E00D4902
:1027A0009031884204D10A490A4A121F116008E098
:1027B0000849A831884204D14FF03D51054A121F03
:1027C00011607047106002403D000020400F002063
:1027D00000003D201064024021B1026842F48022D2
:1027E000026003E0026822F480220260704722B196
:1027F000036843F40023036003E0036823F4002329
:102800000360016170470146486880B27047014625
:1028100000200A6802F400220AB1012000E0002032
:102820007047000030B503460A46002000240B4DD7
:10283000AB4201D20A4901E00849103902F00055C3
:102840000DB14C6800E00C68064D2C4004EA02050E
:102850000DB1012000E0002030BD000010640240F6
:10286000006002407D0F7D0F70B5024600200024FD
:102870000025124EB24201D2114B01E00F4B103B2A
:10288000104E0E4036B11E2606EAD124166806EA1E
:10289000040502E0566906F0800501F000560EB10D
:1028A0005C6800E01C68084E344004EA010616B17A
:1028B0000DB1012000E0002070BD00001064024056
:1028C000006002403C0F3C0F7D0F7D0F10B501F002
:1028D00080034BB122B1436943F08003436103E0BD
:1028E000436923F08003436180290BD02AB1036838
:1028F00001F01E042343036004E0036801F01E049A
:10290000A343036010BD000010B500220268134B02
:102910001A40CC680B6823434C6923438C692343DA
:10292000CC6923430C6A23434C6A23438C6A2343B8
:102930004C6B23438C6B23431A430260426922F0A1
:102940000702D1E90B3423431A4342610B69436008
:102950004B6883608B68C36010BD00003F801CF033
:102960004160704708B50B49496800910168009AB9
:10297000511A00EE901AB8EE601A0749D1ED000A1C
:10298000F8EE600AC1EE201AB0EE610A009901600B
:1029900008BD0000001000E0540000200D49096847
:1029A00041F080710B4A116000210B4A51601146C1
:1029B000096841F00101116008494143084A11606A
:1029C0000021084A11609FED080A084981ED000ABC
:1029D00070470000FCED00E0001000E040420F00F6
:1029E0005400002058000020000000005C0000207F
:1029F0007047000010B5012000F058F8012816D1EA
:102A00000A2004F0C9FE01210B4800F090FA70B9C9
:102A10000A4800880A4908600A480088486001207E
:102A2000087220210648FEF7D9FB074908700120EB
:102A300000F036F810BD0000000002402C06002017
:102A400094070020F00500204805002010B5102054
:102A500000F02CF8012816D10D48007898B10AF042
:102A6000B1FF01280FD00B490B4800680AF03AF873
:102A70000848006838B14FF0805008490860BFF33B
:102A80004F8FBFF36F8F102000F00AF810BD0000C9
:102A9000A8020020300300206805002004ED00E0BB
:102AA0000149086070470000143C014001460020C5
:102AB000034A12680A400AB1012000E00020704772
:102AC000143C0140002123498279002A3AD00A4669
:102AD000126803689A430B461A600A1D126803685D
:102AE0009A430B1D1A60027911440A6803681A435D
:102AF0000A60184A0832126803689A43154B083373
:102B00001A601A1D126803689A43124B0C331A603C
:102B10004279102A0ED11A1F126803681A430D4B0E
:102B200008331A601A1D126803681A43094B0C33E4
:102B30001A600DE00749427911440A6803681A4394
:102B40000A6005E0027911440A6803689A430A6042
:102B500070470000003C014080ED000A7047000013
:102B600001490860704700000C3C024030B1074941
:102B7000096841F48061054A116005E0034909686C
:102B800021F48061014A116070470000003C02405E
:102B900070B504460A460026092502B909E0012A53
:102BA00001D1160205E0022A01D1160201E04FF41C
:102BB000407600F09DF80546092D28D1154800689B
:102BC00020F44070134908600846006830430860EC
:102BD0000846006820F0F80008600846006844F0E5
:102BE000020108430B4908600846006840F4803041
:102BF000086000F07DF805460648006820F00200F5
:102C0000044908600846006820F0F800086028467B
:102C100070BD0000103C024009201349096801F40E
:102C20008031B1F5803F01D101201CE00E490968D7
:102C300001F0100109B1062015E00B49096801F403
:102C4000807109B102200EE00749096801F0E00136
:102C500009B1072007E00449096801F0020109B140
:102C6000082000E0092070470C3C0240034800683F
:102C700040F000400149086070470000103C0240ED
:102C800030B502460C46092500F032F80546092DFC
:102C900017D10D48006820F440700B4908600846C1
:102CA000006808600846006840F001000860147081
:102CB00000F01EF805460448006820F001000249B3
:102CC0000860284630BD0000103C024005480068FE
:102CD00000F0004028B1044802490C39086003485C
:102CE00008607047103C024023016745AB89EFCD77
:102CF00008B509200090FFF78FFF009002E0FFF772
:102D00008BFF00909DF800000128F8D09DF800008E
:102D100008BD00001CB50121084600F0ADFC0121F2
:102D2000022000F0A9FC0121042000F0A5FC0121F3
:102D3000082000F0A1FC0121102000F09DFC0121E1
:102D4000202000F099FC0121402000F095FC012199
:102D5000802000F091FC0121080200F08DFC4FF46E
:102D6000E050009001208DF804008DF8070000204D
:102D70008DF806008DF805006946334800F06CF8C0
:102D80004FF4E051304800F0DBF8012000900020C3
:102D90008DF8040001208DF8070069462B4800F0EB
:102DA0005BF81020009001208DF804008DF80700DA
:102DB00000208DF8060002208DF8050069462348A2
:102DC00000F04AF81021214800F0BCF801200090E2
:102DD0008DF804008DF8070000208DF80600022011
:102DE0008DF8050069461A4800F036F801211848A8
:102DF00000F0A8F84FF40060009000208DF8040067
:102E000002208DF807006946124800F025F84FF4BB
:102E10000070009001208DF804008DF8070000205C
:102E20008DF8060003208DF805006946094800F07A
:102E300013F84FF40071074800F084F8FDF7FAFF2B
:102E400000F085FA1CBD0000001C0240000002409A
:102E50000004024000100240F0B50A4600210023A1
:102E6000002400BF3DE0012505FA01F3156805EADD
:102E700003049C4234D105684F000326BE40B5438D
:102E8000056015794E00B540066835430560157933
:102E9000012D02D01579022D16D185684F00032629
:102EA000BE40B543856055794E00B54086683543D0
:102EB0008560456801268E40B54345604568967932
:102EC0008E40B6B235434560C5684F000326BE400C
:102ED000B543C560D5794E00B540C6683543C56079
:102EE000491C1029BFD3F0BDF0B5002300244D07C5
:102EF000ED0E02FA05F3CE1000F1200555F826502C
:102F00004E07F70E0F26BE40B543CF1000F1200646
:102F100046F82750CE1000F1200555F8265045EA16
:102F20000304CE1000F1200545F82640F0BD02460E
:102F3000002013690B400BB1012000E00020704716
:102F40004183704701837047014600205C4A9142EB
:102F500003D2B1F1006F00D3B0E05A4A914204D2DB
:102F6000574A914201D30820A8E0574A914204D21F
:102F7000544A914201D31020A0E0544A914204D215
:102F8000514A914201D3182098E0514A914204D20B
:102F90004E4A914201D3202090E04E4A914204D201
:102FA0004B4A914201D3282088E04B4A914204D2F7
:102FB000484A914201D3302080E0484A914204D2ED
:102FC000454A914201D3382078E0454A914204D2E3
:102FD000424A914201D3402070E0424A914204D2D9
:102FE0003F4A914201D3482068E03F4A914204D2CF
:102FF0003C4A914201D3502060E0B1F1016F04D20C
:10300000394A914201D3582058E0384A914204D2BB
:10301000B1F1016F01D3802050E0354A914204D2D2
:10302000324A914201D3882048E0324A914204D288
:103030002F4A914201D3902040E02F4A914204D27E
:103040002C4A914201D3982038E02C4A914204D274
:10305000294A914201D3A02030E0294A914204D26A
:10306000264A914201D3A82028E0264A914204D260
:10307000234A914201D3B02020E0234A914204D256
:10308000204A914201D3B82018E0204A914204D24C
:103090001D4A914201D3C02010E01D4A914204D242
:1030A0001A4A914201D3C82008E01A4A914204D238
:1030B000174A914201D3D02000E0D8207047000089
:1030C000004000080080000800C00008000001085F
:1030D00000000208000004080000060800000808BC
:1030E00000000A0800000C0800000E08004010084C
:1030F0000080100800C0100800001108000012082D
:1031000000001408000016080000180800001A0843
:1031100000001C0800001E0870B50A480468001D65
:103120000568001D0668344454B10822064920464B
:1031300000F0EEF8042204491031284600F0E8F8C7
:1031400070BD0000107AFF1F0E05002010B1012293
:10315000034B1A7011B10022014B1A707047000026
:10316000890000200148006870470000B404002076
:1031700005480068401C0449086008460068401C77
:1031800008B9002008607047B404002070B50646F6
:103190003048007800285BD12F480068B0F5006FF8
:1031A00002D100202C4908602B4800682B4909688F
:1031B000884203D100202749087070BD2648006866
:1031C00026490968884206D923480068C0F500608E
:1031D0002349086006E0214800681F490968401A31
:1031E0001F4908601E480068402811D91A48008805
:1031F00085B24024184800684030174908601848D4
:10320000006840381649086001201249087018E02B
:103210001148008885B21248008884B20E480068C0
:103220000F49096808440C49086000200C490860EF
:10323000402C03D102200749087002E00120054913
:10324000087008484219234681213046FEF750FD98
:1032500000BFB2E7F0030020E8030020E4030020F1
:10326000EC03002068E3002000BFFEE770B50546D0
:103270000C4645F2555000F039F8284600F02AF87F
:10328000204600F02DF800F01DF800F001F870BDA8
:103290004CF6CC4001490860704700000030004007
:1032A00010B500F00FF810BD10B57D2000F0FAFA4F
:1032B00020B100F041FA00200149087010BD000063
:1032C000B80400204AF6AA200149086070470000AF
:1032D0000030004001494860704700000030004065
:1032E00001498860704700000030004001490860D3
:1032F000704700000030004010B10022034B1A70EC
:1033000011B10122014B1A707047000088000020A3
:1033100030B50B46002100BF16E00A24B4EB107F45
:1033200005D9302404EB107403F8114005E0412462
:1033300004EB10740A3C03F81140000100254C0016
:10334000641C1D554C1CE1B29142E6DB30BD0EB54C
:103350000121880300F0D0F90021084600F080FC2C
:1033600006208DF8080001208DF8090002208DF854
:103370000A0001208DF80B0002A800F06DF8012072
:10338000009000208DF8040010208DF80500012029
:103390008DF806006846FFF795FB0EBD10B5104886
:1033A000007A90B10F4CA47EC4F3C0030D4CA47EF0
:1033B000C4F380020B4CA47EC4F34001094CA47EEC
:1033C00004F0010005F02EF808E09FED070A04481C
:1033D00080ED0A0A9FED040A80ED0B0A10BD000083
:1033E000F40700208AF600200000000010B5144801
:1033F000007AF0B1134AD27EC2F38011114AD27E14
:10340000C2F34010FFF778FF0E4AD27EC2F30012DB
:1034100032B10C4A927EC2F340120AB1012200E09E
:1034200000221146074AD27EC2F30010FFF78EFE3B
:1034300004E00020044908700449087010BD000031
:10344000F40700208AF60020880000208900002070
:1034500000BFFEE77047000070B5002100230F2277
:10346000C4781CB3174C246804F4E064C4F5E06429
:10347000C4F30721C1F10404E3B20A4144789C403B
:10348000E1B28478144021430C07210E0E4C0578DC
:103490006155047804F01F050124AC4005786D11D6
:1034A000AD0005F1E025C5F8004109E0047804F01D
:1034B0001F050124AC40054D0678761145F82640DD
:1034C00070BD00000CED00E000E400E080E100E0F1
:1034D00002490143024A1160704700000000FA05EA
:1034E0000CED00E010B522480078032831D12148C6
:1034F00090ED140A80ED030A90ED090A80ED010AAF
:1035000090ED140A80ED190A90ED0E0A80ED040A80
:1035100090ED0A0A80ED020A174890ED0B0AB5EE0D
:10352000C00AF1EE10FA06D190ED0A0AB5EEC00A13
:10353000F1EE10FA1AD00E48007806F0CFF90D48D7
:1035400090ED020A80ED0A0A90ED010A80ED090A69
:103550000CE0084890ED020A80ED0A0A90ED010A9D
:1035600080ED090A0248007806F0B8F910BD0000A5
:1035700046030020ECE00020F407002030B513469D
:103580000BE00A2490FBF4F504FB15043034CC5412
:103590000A2490FBF4F4A0B25B1E002BF1DA0024A5
:1035A000531CCC5430BD000010B5024801F0E4FEBD
:1035B00010BD000068EB00209FED0F0A80ED080AA7
:1035C0009FED0D0A80ED090A9FED0B0A80ED0A0AB6
:1035D0009FED090A80ED0B0A9FED070A80ED020AB4
:1035E0009FED050A80ED030A00224A210A520021BC
:1035F00080F8481070470000000000002DE9F041FD
:103600002DED048B0446B0EE408AF0EE608AB0EEF9
:10361000419A0E4617461D46C5B9154820641548FF
:1036200060643A463146B0EE491AF0EE680AB0EEF0
:10363000480A2046236C9847B0EE491AF0EE680A13
:10364000B0EE480A2046616C88470CE008482064C8
:103650003A463146B0EE491AF0EE680AB0EE480A32
:103660002046236C9847BDEC048BBDE8F081000038
:10367000C59E0008F99E000829B1064A1268024357
:10368000044B1A6004E0034A12688243014B1A603B
:10369000704700003038024029B1064A12680243E0
:1036A000044B1A6004E0034A12688243014B1A601B
:1036B000704700003438024029B1064A12680243BC
:1036C000044B1A6004E0034A12688243014B1A60FB
:1036D000704700004038024029B1064A1268024390
:1036E000044B1A6004E0034A12688243014B1A60DB
:1036F000704700002038024029B1064A1268024390
:10370000044B1A6004E0034A12688243014B1A60BA
:10371000704700004438024029B1064A126802434B
:10372000044B1A6004E0034A12688243014B1A609A
:1037300070470000243802400348006840F0807061
:103740000149086070470000743802400149C864AC
:1037500070470000000047421448006840F0010034
:103760001249086000201149083108600F480068BC
:103770000F4908400D4908600E48091D08600E48B1
:103780000A49843108600B481038091D0860074851
:10379000006820F4802005490860002003490C31AE
:1037A000086002498C310860704700000038024010
:1037B000FFFFF6EA1030002400300020F0B50021B1
:1037C00000220024022500260223324F3F6807F022
:1037D0000C0121B1042905D0082937D105E02E4F6D
:1037E000076036E02D4F076033E02A4F3F1F3F68E8
:1037F000C7F38056274F3F1F3F6807F03F036EB166
:10380000264FB7FBF3F7DFF88CC0ACF1040CDCF803
:1038100000C0CCF3881C07FB0CF40CE01E4FB7FB78
:10382000F3F7DFF870C0ACF1040CDCF800C0CCF3A7
:10383000881C07FB0CF4174F3F1F3F68C7F3014775
:103840007F1C7D00B4FBF5F7076002E0124F0760B4
:1038500000BF00BF0F4F3F6807F0F0010909104F8C
:103860007A5C0768D74047600A4F3F6807F4E05129
:10387000890A0B4F7A5C4768D7408760054F3F68DD
:1038800007F46041490B064F7A5C4768D740C76030
:10389000F0BD0000083802400024F400001BB7000F
:1038A000A000002010B501460022002300204A118C
:1038B000012A02D10A4C236808E0022A03D1084CED
:1038C0007034236802E0064C7434236801F01F0250
:1038D000012494401C400CB1012000E0002010BDE8
:1038E0000038024001460020034A106820F0F00032
:1038F0000843106070470000083802400021024A67
:103900001170114608707047023802400149086082
:10391000704700000000474201460020034A10683B
:1039200020F4E0500843106070470000083802405F
:1039300001460020034A106820F4604040EAC100BC
:10394000106070470838024001490866704700005F
:103950000000474270B5049C41EA82150126C6EB7F
:10396000530645EA0645054345EA0465014E3560C0
:1039700070BD00000438024001460020034A106870
:1039800020F0030008431060704700000838024030
:1039900038B5002000900024002500BF3120FFF73B
:1039A00081FF05460098401C00900098B0F5A04F9C
:1039B00001D0002DF2D03120FFF774FF08B10124AF
:1039C00000E00024204638BD21B1028842F04002C8
:1039D000028004E002884FF6BF731A4002807047ED
:1039E00000B587B001210846FFF746FE01210220FD
:1039F000FFF742FE01210803FFF77EFE05220421A6
:103A00002F48FFF771FA052203212D48FFF76CFAC2
:103A1000052207212B48FFF767FA1820059002209E
:103A20008DF8180000208DF81A0001208DF81B0079
:103A300003208DF8190005A92148FFF70DFA02208F
:103A40008DF8180000208DF81A0001208DF81B0059
:103A500003208DF819008020059005A91948FFF76B
:103A6000FBF94FF48270ADF802000020ADF80000C1
:103A7000ADF804000220ADF806000120ADF8080002
:103A80004002ADF80A002820ADF80C000020ADF887
:103A90000E000720ADF810000B4880880A49888086
:103AA0000846008820F4005008806946064800F067
:103AB0000DF801210448FFF787FF07B000BD0000A3
:103AC00000040240000002400030014010B5002216
:103AD000028802F441520B884C8823438C8823438C
:103AE000CC8823430C8923434C8923438C8923436B
:103AF000CC8923431A430280838B4FF2FF74234007
:103B000083830B8A038210BD70B505460C464B4873
:103B1000854237D12068B0F5027F0DD0A0F20A208F
:103B200010B1FD282CD11CE02146454803F0E6FEEB
:103B3000052003F05FFF24E0424881698069401C52
:103B4000404A9061322904D82146104604F084FB93
:103B500003E021463B4803F0D1FE072003F04AFF73
:103B60000FE03948C07A394981F836003648007B81
:103B700000EE100AB8EE400A354880ED000A00E079
:103B800000BF59E040F203222068811A90420DD014
:103B900005DCA0F2012038B101284BD105E0012954
:103BA00005D0FE2946D13DE000BF00BF00BF207810
:103BB000401E2849087008460078C0EB00102649CE
:103BC00001EB8000816923480078C0EB0010224A95
:103BD00002EB80008069401C1E4A1278C2EB021280
:103BE0001D4B03EB8202906132290AD819490978EA
:103BF000C1EB01111A4602EB8100214604F02CFBB7
:103C000009E014490978C1EB0111134A02EB810064
:103C1000214603F073FE0F49097801F1080003F013
:103C2000E9FE08E021460D4803F068FE062003F097
:103C3000E1FE00E000BF00BF70BD00000064004076
:103C40002C06002068060020C8050020F4D70020BC
:103C50004C00002052000020A4060020F0050020A7
:103C600030B500228B071C0F0F2303FA04F20B4B15
:103C70008C1053F824309343084C8D1044F82530B1
:103C800023468C1053F824308C07240F00FA04F4D8
:103C90002343024C8D1044F8253030BD08380140D4
:103CA0000CB50020019000903448006840F480304A
:103CB0003249086000BF3148006800F400300090CD
:103CC0000198401C0190009818B90198B0F5A04FD8
:103CD000F1D12A48006800F4003010B101200090B2
:103CE00001E0002000900098012846D12348403090
:103CF000006840F080502149403108602048006849
:103D000040F440401E4908601C48083000681B49C8
:103D1000083108600846006840F400400860084622
:103D2000006840F4A05008601648091F0860081F8A
:103D3000006840F08070091F086000BF0F480068ED
:103D400000F000700028F9D040F205700E490860BC
:103D50000A480830006820F003000849083108606C
:103D60000846006840F00200086000BF03480830C1
:103D7000006800F00C000828F8D10CBD00380240A3
:103D8000007000400C544007003C0240012080F3CA
:103D9000138800BF00BFBFF34F8F0748006800F4CF
:103DA000E06006490843001D03490860BFF34F8FD8
:103DB00000BF00BFFEE700000CED00E00000FA05C8
:103DC000042808D14FF0E021096941F004014FF0C7
:103DD000E022116107E04FF0E021096921F00401C0
:103DE0004FF0E0221161704710B509F0EBFD01289A
:103DF00001D009F00DF910BD10B504466FF00400B4
:103E0000FFF7DEFFE11704EB5171C1F3C701074A69
:103E100011701046007800EB4001C1EBC0104FF666
:103E2000FF7101EAC0000249088010BD440500206E
:103E30004605002010B51548006840F4700013498D
:103E400008601348006840F0010011490860002034
:103E50000F49083108600E4800680E4908400C49B7
:103E600008600D48091D0860081F006820F48020C4
:103E7000091F0860002006490C310860FFF710FF99
:103E80004FF0006001498039086010BD88ED00E006
:103E900000380240FFFFF6FE103000241CB5054834
:103EA000022100238022CDE9001003A1054809F07A
:103EB000E3FB1CBD4C05002073746172745F746178
:103EC000736B000039BA000830B58BB005460C465C
:103ED00001212020FFF7D0FB01214804FFF70CFC53
:103EE000032206211F48FEF7FFFF40200990022011
:103EF0008DF8280001208DF82B0000208DF82A0075
:103F000003208DF8290009A91648FEF7A5FF07959B
:103F1000A0B2ADF818000020ADF82000ADF81A00EE
:103F200006A9114800F022FA6020ADF80400002034
:103F3000ADF810000120ADF806000020039001A9A3
:103F4000094800F003F90821074800F03DF9012174
:103F5000054800F085F80121034800F0C2F80BB0D5
:103F600030BD0000001402400044014010B50121A2
:103F7000054800F0D1F808B1FFF7FAF8012102482E
:103F800000F0ACF810BD00000008004030B58BB068
:103F900005460C4601210802FFF76EFB01210220B5
:103FA000FFF7AAFB032207212B48FEF79DFF802085
:103FB000099002208DF8280001208DF82B000020A8
:103FC0008DF82A0003208DF8290009A92248FEF760
:103FD00043FF0795A0B2ADF818000020ADF820000F
:103FE000ADF81A0006A91D4800F0C0F901A800F0BC
:103FF000AEF96020ADF804000020ADF810000120FB
:10400000ADF8060040F63320039001A9134800F0F4
:104010009DF801A9114800F0E1F801A90F4800F04E
:104020003DF908210D4800F0CFF808210B4800F0B9
:1040300027F90821094800F081F90121074800F01B
:104040000FF80121054800F058F80121034800F05D
:1040500048F80BB030BD00000020024000040140D1
:1040600021B1028842F08002028004E002884FF60B
:104070007F731A40028070477FB505460C460121C8
:104080000420FFF719FB0295ADF804400020ADF8BD
:104090000C00ADF8060001A90F4800F067F90122F5
:1040A00011460D4800F049F801210B4800F016F8C0
:1040B0001E208DF8000000208DF801008DF8020010
:1040C00001208DF803006846FFF7C6F90121024878
:1040D00000F007F87FBD000000080040CA430282DC
:1040E000704721B1028842F00102028004E0028898
:1040F0004FF6FE731A400280704731B1B0F8442089
:1041000042F40042A0F8442005E0B0F84420C2F395
:104110000E02A0F84420704730B50246002000236C
:104120000024158A05EA0103958905EA010413B103
:104130000CB1012000E0002030BD1AB183890B438F
:10414000838102E083898B438381704770B50024AB
:1041500000220023058C4FF6FE7635400584028C44
:104160008388048B4FF68F752C40B51E2C400D882C
:104170002C43751E2A408D892A434D882A43104DB1
:10418000A84202D00F4DA84213D14FF6F7752A402E
:10419000CD892A434FF6FB752A408D882A434FF676
:1041A000FF652B404FF6FF552B400D8A2B434D8A60
:1041B0002B43838004838D684563028470BD0000B7
:1041C00000000140000401400A460021018B4FF627
:1041D000F7731940114301837047000070B5002444
:1041E00000220023058C4FF6EF7635400584028CC3
:1041F0008388048B48F6FF752C404FF6FF452C4012
:104200000D884FF6FF7606EA05252C434FF6DF753D
:104210002A408D8906EA05152A434D8806EA0515C8
:104220002A43154DA84202D0144DA8421DD14FF685
:104230007F752A40CD894FF6FF7606EA05152A4399
:104240004FF6BF752A408D8806EA05152A434FF6BA
:10425000FF352B404FF2FF752B400D8A06EA85058E
:104260002B434D8A06EA85052B43838004838D68A2
:104270008563028470BD000000000140000401401D
:104280000A460021018B4FF2FF7319404FF6FF736E
:1042900003EA0223194301837047000070B500242C
:1042A00000220023058C4FF6FF6635400584028C02
:1042B0008388848B4FF68F752C404FF6FC752C400D
:1042C0000D882C434FF6FF552A408D894FF6FF7617
:1042D00006EA05252A434D8806EA05252A43154D99
:1042E000A84202D0144DA8421DD14FF2FF752A40BA
:1042F000CD894FF6FF7606EA05252A434FF6FF35AE
:104300002A408D8806EA05252A434EF6FF752B4084
:104310004DF6FF752B400D8A06EA05152B434D8A95
:1043200006EA05152B43838084838D68C563028468
:1043300070BD000000000140000401400A46002159
:10434000818B4FF6F7731940114381837047002129
:1043500001804180818081608181C18101824182AF
:10436000704741637047C1637047000000220288B4
:10437000184B98420ED0184B98420BD0B0F1804F9A
:1043800008D0164B984205D0154B984202D0154BD9
:10439000984204D14FF68F731A404B881A43124B40
:1043A000984207D0114B984204D04FF6FF431A4071
:1043B0000B891A4302804B68C3620B880385054B47
:1043C000984202D0044B984201D18B7A0386012394
:1043D0008382704700000140000401400004004057
:1043E00000080040000C0040001000400014004095
:1043F00000B587B001210220FFF73EF901210846F0
:10440000FFF73AF901211020FFF776F9012110207A
:10441000FFF782F900211020FFF77EF907221146ED
:104420003148FEF761FD072209213048FEF75CFDA7
:104430008020059002208DF8180000208DF81A00C9
:104440008DF81B0003208DF8190005A92648FEF7FA
:1044500003FD4FF40070059002208DF81800002035
:104460008DF81A008DF81B0003208DF8190005A99E
:104470001E48FEF7F1FC1E4800F084FB4FF4E130CB
:1044800001900020ADF80800ADF80A00ADF80C006E
:104490000C20ADF80E000020ADF8100001A9144862
:1044A00000F044FC1021124800F03EFB012240F2D3
:1044B00024410F4800F015FC01210D4800F04CFB91
:1044C00025208DF8000005208DF8010000208DF8D2
:1044D000020001208DF803006846FEF7BDFF00F0E2
:1044E00009F807B000BD00000004024000000240CF
:1044F0000010014000B58FB001218805FFF7BCF81E
:10450000012240211C4800F033FB1C48FEF7B8F89C
:104510004FF0006000901848001D0190184802906C
:10452000002003904FF400700490002005904FF499
:104530008060069000200790089009900A900B90E8
:1045400003200C9000200D900E9069460B48FEF75A
:10455000DBF900220B490948FEF749F90121074818
:10456000FEF73AF900210548FEF77EF801210348DD
:10457000FEF77AF80FB000BD0010014088640240D9
:104580005CF200205CF400201CB50020019010219A
:10459000164800F06FFB38B340F22441134800F096
:1045A00076FB08B3114800F02BFC10210F4800F0F7
:1045B000BBFA0F2003F01EFA0D480068A0B101A855
:1045C00000230122082100900948006809F006F93B
:1045D000019848B1019838B14FF080500549086002
:1045E000BFF34F8FBFF36F8F1CBD00000010014061
:1045F0007005002004ED00E00EB501210846FFF72C
:104600003BF801210420FFF737F801218804FFF768
:1046100053F801218804FFF75FF800214FF4802050
:10462000FFF75AF807220B212648FEF75DFC4FF4EE
:104630000060019002208DF8080000208DF80A002B
:1046400001208DF80B0003208DF8090001A91D48F9
:10465000FEF702FC1C4800F095FA1C481C49086053
:1046600000208880C8804FF4806008810420488141
:1046700000208881144800F059FB0121124800F005
:104680006BFA1021104800F04FFA10210E4800F08C
:1046900054FA012240F224410B4800F022FB27206B
:1046A0008DF8000005208DF8010000208DF8020033
:1046B00001208DF803006846FEF7CEFE00F00AF8F0
:1046C0000EBD00000008024000480040A086010026
:1046D000ACF6002000B58FB001214805FEF7CCFFF5
:1046E000012240211E4800F043FA1E48FDF7C8FF92
:1046F0004FF0006000901A48001D01901A48029087
:104700000020039024200490002005904FF4806046
:1047100006900020079008904FF4807009900020C8
:104720000A900B9003200C9000200D900E9069468B
:104730000C48FEF7E9F800220B4924310948FEF73E
:1047400056F801210748FEF747F800210548FDF714
:104750008BFF01210348FDF787FF0FB000BD00006C
:1047600000480040286002409CF1002010B5102154
:104770003C4800F07FFA002872D040F224413948CA
:1047800000F085FA00286BD0364800F039FB364837
:10479000FEF73DF868BB00213348FDF765FF32485E
:1047A000FEF731F8C0F1240030490880084600883F
:1047B000242809D101202E4988772E492C4806F05B
:1047C000B7FA0D2003F016F924212748FEF7C8F8A0
:1047D00025482838806A40F4002023492839886217
:1047E00025492148FDF70CFF01211F48FDF73CFF3B
:1047F0002EE000211C48FDF737FF1B481830FEF75C
:1048000002F8C0F1240019490880084600882428CD
:104810000AD101201649887716492431144806F038
:1048200087FA0D2003F0E6F824210F48FEF798F8E8
:104830000D482838806A20F400200B492839886206
:104840000D490948FDF7DCFE01210748FDF70CFF83
:104850001021044800F068F91021024800F06DF9B9
:1048600010BD000000480040286002404A050020BA
:104870008AF600209CF100200000301000B587B0BF
:1048800001214020FEF7F8FE01212020FEF734FF31
:1048900001212020FEF740FF082209213848FEF7B9
:1048A00023FB4FF40070059002208DF818000020C3
:1048B0008DF81A0001208DF81B0003208DF81900D7
:1048C00005A92F48FEF7C8FA2E4800F05BF94FF40F
:1048D000612000900020ADF80400ADF806004FF410
:1048E0008060ADF808000420ADF80A000020ADF8A3
:1048F0000C006946234800F019FA4021214800F0D5
:1049000013F920211F4800F00FF910211D4800F075
:104910000BF902211B4800F007F90121194800F0AA
:104920001BF91021174800F0FFF81021154800F07E
:1049300004F9012240F22441124800F0D2F9012288
:104940006021104800F0CDF901210F4800F004F972
:10495000012240210B4800F00BF947208DF8100090
:1049600005208DF8110000208DF8120001208DF82F
:10497000130004A8FEF770FD00F008F807B000BDB2
:1049800000180240001401400010014000B591B031
:1049900001218805FEF770FE01224021294800F020
:1049A000E7F82948FDF76CFE4FF02060029025489B
:1049B000001D039025480490002005902A200690B1
:1049C000002007904FF480600890002009900A9022
:1049D0004FF480700B904FF440300C9000200D90FD
:1049E00003200E9000200F90109002A91648FDF7AA
:1049F0008BFF002215492A311348FDF7F8FE0121EB
:104A00001148FDF7E9FE012210210F48FDF75EFF76
:104A100039208DF8040005208DF8050000208DF860
:104A2000060001208DF8070001A8FEF715FD002102
:104A30000548FDF719FE01210348FDF715FE11B0E9
:104A400000BD00000014014028640240E4F1002091
:104A500010B51021314800F00DF9A8B140F2244101
:104A60002E4800F014F978B12A2200212C4802F0D7
:104A70002BFF2A4800F0C4F91021284800F054F810
:104A80001021264800F059F80E21244800F0F2F8D1
:104A9000002841D040F22531204800F0F8F8B0B9A4
:104AA00060211E4800F0F3F888B94FF458711B4894
:104AB00000F0EDF858B94FF41871184800F0E7F815
:104AC00028B94FF4B071154800F0E1F820B30E2179
:104AD000124800F029F840F22531104800F02DF876
:104AE00060210E4800F029F84FF458710B4800F08F
:104AF00024F84FF41871094800F01FF84FF4B07112
:104B0000064800F01AF800210648FDF7ADFD0348FD
:104B100000F038F8FFF7B2FE10BD000000140140AD
:104B2000A4D800202864024001F40072B2F5007F8E
:104B300000D100BFCA430280704710B50022002395
:104B400040F66A14A14200D100BF0A120124944029
:104B5000A3B2DC43048010BD21B1828942F400522B
:104B6000828104E082894DF6FF731A40828170478A
:104B70001AB1838A0B43838202E0838A8B43838248
:104B80007047000010B504463248844208D1012124
:104B90001020FEF7C1FD00211020FEF7BDFD57E0FB
:104BA0002D48844209D101214804FEF795FD0021DA
:104BB0004FF40030FEF790FD4AE02848844209D1C6
:104BC00001218804FEF788FD00214FF48020FEF7C4
:104BD00083FD3DE02248844209D10121C804FEF74B
:104BE0007BFD00214FF40020FEF776FD30E01D48EC
:104BF000844209D101210805FEF76EFD00214FF422
:104C00008010FEF769FD23E01748844208D1012196
:104C10002020FEF781FD00212020FEF77DFD17E01A
:104C20001248844209D101218807FEF755FD002171
:104C30004FF08040FEF750FD0AE00D48844207D156
:104C400001214005FEF748FD00216005FEF744FD07
:104C500010BD00000010014000440040004800402A
:104C6000004C00400050004000140140007800401B
:104C7000007C004002460020B1F5007F00D100BF5B
:104C800013880B400BB1012000E00020704770B585
:104C90000246002400230025002040F66A16B14297
:104CA00000D100BFC1F3421501F01F03012606FA2F
:104CB00003F3012D02D19689334006E0022D02D183
:104CC000168A334001E0968A33400C12012606FA18
:104CD00004F41688344013B10CB1012000E0002028
:104CE00070BDF0B50346002400260025002040F6E4
:104CF0006A17B94200D100BF1846C1F3421401F04F
:104D00001F06012707FA06F5012C01D10C3004E03B
:104D1000022C01D1103000E014301AB107682F4383
:104D2000076002E00768AF430760F0BD2DE9FF4769
:104D300005460E460024A14600BFA046B08900B13A
:104D400000BF2C8A24F44054F08804432C82AC89A0
:104D500041F20C608443B08831890843718908436B
:104D60000443AC81AC8A24F44074B0890443AC821F
:104D70006846FEF723FD2048854202D01F48854241
:104D800002D1DDF80C9001E0DDF80890A88900F46C
:104D9000004040B109EBC90000EB0910316849003F
:104DA000B0FBF1F707E009EBC90000EB091031682F
:104DB0008900B0FBF1F76420B7FBF0F00401200993
:104DC000642101FB1078A88900F4004040B1322032
:104DD00000EBC800B0FBF1F000F00700044308E06E
:104DE000322000EB08106421B0FBF1F000F00F005E
:104DF00004432C81BDE8FF870010014000140140EE
:104E000001468888C0F308007047C1F30802828019
:104E1000704770B504460D46D4F8E405294642684B
:104E200020469047002070BD70B504460D464FF4F3
:104E30008970005D022802D0032812D100E000BF73
:104E4000688801280CD100214FF48C700151D4F8EE
:104E5000E4052946826820469047204600F075F810
:104E600004E02946204600F021F800BF00BF70BDD5
:104E70002DE9F04106460C46154600272B462246F2
:104E800000213046FCF7D9FE3846BDE8F0812DE917
:104E9000F04106460C46154600272B4622460021C7
:104EA0003046FCF725FF3846BDE8F08170B5044672
:104EB0000D4680212046FCF7F7FE00212046FCF736
:104EC000F3FE204601F044F970BD2DE9F04104469F
:104ED0000E4615460027C4F89453C4F89053032196
:104EE00040F2111001552B46324600212046FCF7B6
:104EF000A4FE3846BDE8F08170B5044600250521C2
:104F000040F21110015500231A4619462046FCF7BD
:104F100094FE204601F01CF9284670BD2DE9F041B1
:104F200004460E4615460027C4F83C51C4F83851D3
:104F3000022140F2111001552B4632460021204635
:104F4000FCF7D6FE3846BDE8F08170B50446002572
:104F5000042140F21110015500231A46194620463B
:104F6000FCF7C6FE204601F0F3F8284670BD70B588
:104F700005460E46002E5DD105F58E7440F21110E7
:104F8000405D022849D1A168E069884217D9A1682B
:104F9000E069401AE061E878012803D1D4E9021001
:104FA0000844E060A08B82B22846E168FFF76FFFFB
:104FB00000231A4619462846FCF73FFE2DE0A1685B
:104FC000206AB0FBF1F201FB1200A8B9A168206AC7
:104FD000884211D3D4E9080188420DD2002211463B
:104FE0002846FFF754FF0020606200231A46194646
:104FF0002846FCF722FE10E0D5F8E405C06848B169
:105000004FF48970405D032804D1D5F8E405C168E8
:10501000284688472846FFF76FFF4FF48B70405DA6
:10502000012816D1284600F063FA00214FF48B7056
:1050300041550EE0D5F8E405406950B14FF4897050
:10504000405D032805D1D5F8E4053146426928467C
:105050009047002070BD70B505460E46A6BB05F50D
:105060005D7440F21110405D03283DD1A168E069F4
:10507000884217D9A168E069401AE061E878012800
:1050800003D1D4E902100844E060A368E0699842C3
:1050900001D2E06900E0A06882B22846E168FFF72B
:1050A000E7FE21E0D5F8E405006948B14FF48970C6
:1050B000405D032804D1D5F8E405016928468847F6
:1050C0002846FFF742FF0FE0FFE7D5F8E4058069C7
:1050D00050B14FF48970405D032805D1D5F8E4053F
:1050E0003146826928469047002070BD0146002065
:1050F0007047000070B504460D46E888012804D0CA
:1051000029462046FFF7D2FE1AE04FF48970005D71
:10511000022802D003280DD105E0012209492046CA
:10512000FFF7FCFE0BE0012204F588712046FFF733
:10513000F5FE04E029462046FFF7B8FE00BF00BF99
:1051400070BD0000A8040020F8B504460E46F088A3
:10515000009070880012082862D2DFE800F0610435
:105160000C186161575CA078D4F8EC150A686946A0
:105170009047054659E0A078D4F8E4158A6A694654
:105180009047054602216970C4F8F0554DE0B078AB
:10519000062834D2DFE800F0030B131B232BA07882
:1051A000D4F8EC154A686946904705462CE0A0788B
:1051B000D4F8EC158A6869469047054624E0A07843
:1051C000D4F8EC15CA686946904705461CE0A078FB
:1051D000D4F8EC150A6969469047054614E0A078B2
:1051E000D4F8EC154A696946904705460CE0A0786A
:1051F000D4F8EC158A6969469047054604E03146C3
:105200002046FFF753FEF8BD00BF0EE031462046B2
:10521000FFF74CFEF7E731462046FFF747FEF2E77F
:1052200031462046FFF742FEEDE700BFBDF8000023
:1052300088B1F08878B1F088BDF80010884202DDAE
:10524000BDF8000000E0F0880090BDF8002029467D
:105250002046FFF763FE00BFD5E70146002002E0CD
:10526000421CD0B2491C0A78002AF9D170470000CC
:1052700070B504460D464FF48970005D022802D0D7
:10528000032813D100E000BF01200C4908604FF44F
:105290008C70005920B10846006840F00200086098
:1052A000022206492046FFF739FE04E0294620463F
:1052B000FFF7FCFD00BF00BF70BD0000AC04002084
:1052C0002DE9F04104460D4617460026FCB1204664
:1052D000FFF7C3FF022101EB400038803A783046E7
:1052E000711CCEB22A5403223046711CCEB22A540D
:1052F0000AE014F8012B3046711CCEB22A54002269
:105300003046711CCEB22A5420780028F1D1BDE875
:10531000F0812DE9F04104460F4615461E46DDF8A2
:105320001880204600F00CFC2046FFF7DFFEC4F892
:10533000E465C4F8E885C4F8EC5539462046FDF725
:1053400059F8D4F8E81508688047204600F0E6FBD5
:10535000BDE8F08110B50446D4F8E405016A2046A2
:105360008847002010BD10B50446D4F8E405416A12
:1053700020468847002010BD7CB5054600242846FD
:1053800001F0E2F9002865D0284601F0E8F9019023
:10539000019808B900207CBD0198C0F3C04018B145
:1053A0002846FCF72DFE04430198C0F3804018B155
:1053B0002846FCF791FD04430198C0F3400050B12A
:1053C00000200090009820F00200801C00900098BF
:1053D000E968486100BF0198C00F18B12846FCF782
:1053E0008FFE04430198C0F3C02018B12846FCF793
:1053F0002BFF04430198C0F3C00018B12846FCF706
:105400000DFF04430198C0F3001018B12846FCF7C3
:10541000ADFE04430198C0F3003018B12846FCF7F4
:1054200067FF04430198C0F3403018B12846FCF7E9
:1054300087FC04430198C0F3005018B12846FDF7DB
:1054400027F804430198C0F3405018B12846FDF7EF
:1054500035F8044320469EE790F8CC250A7090F872
:10546000CD254A7090F8CE3590F8CF2503EB022277
:105470004A8090F8D03590F8D12503EB02228A803B
:1054800090F8D23590F8D32503EB0222CA80CB885E
:105490004FF4A0721350012340F2111213547047BD
:1054A00010B504460023402219462046FCF791FB24
:1054B0000023402280212046FCF78BFB01214FF482
:1054C00089700155A078D4F8E825516888470020F4
:1054D00010BD10B50446D4F8E8150869804740F2BD
:1054E0001310015D401E015503210155002010BD20
:1054F00001460348026808694260002070470000C6
:105500007004002010B50446D4F8E405C06920B149
:10551000D4F8E405C16920468847002010BD70B565
:1055200004460D46A88818BBE88808BBA87800F098
:105530007F064FF48970005D032804D12946204678
:10554000FFF7B4FC18E04FF48A7006553146204648
:10555000FCF79CFB2046FFF7F8FC26B102214FF434
:105560008970015508E001214FF48970015503E06D
:1055700029462046FFF79AFC70BD70B504460D46DB
:10558000D4F8E4052946026820469047D4F8E81587
:1055900088688047002070BD70B504460D46A87825
:1055A0003049087008460078022804DD2946204664
:1055B000FFF77CFC55E04FF48970005D022802D0B3
:1055C000032848D117E02748007880B125480078A3
:1055D00084F8100103214FF48970015521480178A6
:1055E0002046FFF7CAFF2046FFF7AFFC02E0204647
:1055F000FFF7ABFC34E01B48007880B902214FF480
:10560000897001551748007884F810011548017811
:105610002046FFF7FEFB2046FFF797FC1AE094F8C0
:10562000100110490978884211D094F810112046D1
:10563000FFF7EFFB0B48007884F810010948017868
:105640002046FFF79AFF2046FFF77FFC02E0204646
:10565000FFF77BFC04E029462046FFF727FC00BF4C
:1056600000BF70BDB0040020F8B504460D4600260A
:10567000688801280DD101214FF48C700151D4F8B4
:10568000E40529468268204690472046FFF75DFCE6
:105690003FE0688802283CD12879D0BB2069406867
:1056A0000090A8880612062E22D2DFE806F0210319
:1056B000090F151B009820F07000103000901DE0BD
:1056C000009820F070002030009017E0009820F043
:1056D00070003030009011E0009820F070004030F1
:1056E00000900BE0009820F070005030009005E032
:1056F000009820F070001030009000BF00BF0548F7
:105700000099016001214FF48B7001552046FFF78D
:105710001CFCF8BD700400201CB5044669462046F8
:10572000FFF79AFE9DF8000000F01F0020B101284D
:1057300007D002280FD109E06946204600F016F88C
:1057400011E06946204600F007F90CE06946204662
:1057500000F046F807E09DF8000000F080012046C8
:10576000FCF7A2FA00BF00BF00201CBD70B50546C3
:105770000C46002660780A2829D2DFE800F01923B9
:10578000281E280A0528140F21462846FFF7DCFCAE
:1057900022E021462846FFF7C2FE1DE021462846AA
:1057A000FFF7FAFE18E021462846FFF7A3FC13E0B6
:1057B00021462846FFF75CFD0EE021462846FFF70C
:1057C00053FF09E021462846FFF72EFB04E021465F
:1057D0002846FFF76BFB00BF00BF304670BD0000DE
:1057E0002DE9F04105460E4600273479307800F067
:1057F0006000202808D1D5F8E405314682682846A3
:1058000090473846BDE8F0817078002857D00128CD
:105810002BD0032875D14FF48970405D022802D047
:1058200003281BD107E02CB1802C03D02146284649
:10583000FCF73AFA17E0708830B92CB1802C03D00D
:1058400021462846FCF730FAD5F8E405314682684F
:10585000284690472846FFF778FB04E03146284663
:10586000FFF724FB00BF00BF70E04FF48970405D7C
:10587000022802D003281BD107E02CB1802C03D0D2
:1058800021462846FCF710FA17E0708878B95CB119
:10589000802C09D021462846FCF777F9D5F8E40595
:1058A00031468268284690472846FFF74EFB04E0C1
:1058B00031462846FFF7FAFA00BF00BF46E04FF432
:1058C0008970405D022802D0032837D107E02CB14F
:1058D000802C03D021462846FCF7E6F933E004F09B
:1058E0008000802812D104F07F0000EB800105F5D4
:1058F0008E7000EBC100807820B10120154908604E
:1059000016E022E000201349086011E004F0800056
:1059100070B904EB840105F55D7000EBC10080787F
:1059200018B101200B49086002E000200949086015
:10593000022208492846FFF7F1FA04E031462846DA
:10594000FFF7B4FA00BF00BF00E000BF00BF384659
:1059500058E70000A404002070B504460D46002658
:105960004FF48970005D032814D1287902280CDCDB
:10597000D4F8E4052946826820469047E88840B973
:105980003EB92046FFF7E1FA03E029462046FFF73B
:105990008DFA04E029462046FFF788FA00BF00BFD1
:1059A000304670BD10B504464FF48970015D401C4F
:1059B00001550421401E0155D4F8E815C8688047F8
:1059C000002010BD70B505460C462DB9224606498B
:1059D00006A0FFF775FC04E02246034903A0FFF789
:1059E0006FFC014870BD00005CF100205643502060
:1059F000436F6E6669670000704770470246122069
:105A00000880014870470000EC040020704710B186
:105A1000012802D100E001E000E000BF00BF7047B4
:105A2000704770477047000070B505460C462DB9A9
:105A30002246064906A0FFF743FC04E0224603493C
:105A400003A0FFF73DFC014870BD00005CF10020A1
:105A500056435020496E74657266616365000000AC
:105A60000246042008800148704700000805002015
:105A700070B505460C462246024903A0FFF720FCFC
:105A8000004870BD5CF100204177616B656C696F07
:105A90006E00000070B505460C462DB92246064939
:105AA00006A0FFF70DFC04E0224603490AA0FFF719
:105AB00007FC014870BD00005CF10020566972745B
:105AC00075616C20436F6D506F727420696E204851
:105AD00053206D6F646500005669727475616C20A7
